:020000040800F2
:1000000000500020C90200084D0300084D030008FD
:100010004D0300084D0300084D03000800000000D8
:100020000000000000000000000000004D03000878
:100030004D030008000000004D0300084D030008B8
:100040004D0300084D0300084D0300084D03000850
:100050004D0300084D0300084D0300084D03000840
:100060004D0300084D0300084D0300084D03000830
:100070004D0300084D0300084D0300084D03000820
:100080004D0300084D0300084D0300084D03000810
:100090004D0300084D0300084D0300084D03000800
:1000A0004D0300084D0300084D0300084D030008F0
:1000B0004D0300084D0300084D0300084D030008E0
:1000C0004D0300084D0300084D0300084D030008D0
:1000D0004D0300084D0300084D0300084D030008C0
:1000E0004D0300084D0300084D03000880B500AF24
:1000F00000F0BAFD00F030F900F046F900F060F9C8
:1001000000F082FE00F072F900F08AFB00F09DFF23
:1001100000BF80BD000000002DE9B04300AFFFF735
:10012000E5FF00F0EDFB624B9B681946614800F06B
:10013000D6FE03465E4A53615D4BDB6819465E4856
:1001400000F0CDFE03465A4A9361594B1B6919468C
:100150005A4800F0C4FE0346554AD361544B9B698C
:10016000184601F09FFB04460D46514B5B6918464B
:1001700001F098FB4FF000024FF0804302F0B2FA1A
:10018000804689464A4BDB69184601F08BFB4FF0ED
:1001900000024FF0804302F0A5FA02460B464046AB
:1001A000494601F021FA02460B461046194602F074
:1001B00007FB02460B462046294601F0F5FC0246A5
:1001C0000B461046194602F0FBF84FF000023C4B7C
:1001D00001F0C0FB02460B461046194632A3D3E994
:1001E000002301F0E1FC02460B461046194601F0DF
:1001F00061FE03461AB2334B5A802D4B5B6983F084
:100200000043184601F04EFB04460D46284B9B69FF
:10021000184601F047FB4FF000024FF0804302F018
:1002200061FA80468946224BDB69184601F03AFBA9
:100230004FF000024FF0804302F054FA02460B46A2
:100240004046494601F0D0F902460B461046194691
:1002500002F0B6FA02460B462046294601F0A4FCFD
:1002600002460B461046194602F0AAF84FF000026B
:10027000134B01F06FFB02460B46104619460AA3CA
:10028000D3E9002301F090FC02460B4610461946C4
:1002900001F010FE03461AB20A4B1A804FF47A702E
:1002A00000F0D2FD3DE700BF00000060FB210940E7
:1002B0003004002074040020880400209C040020E6
:1002C000008066407004002080B586B000AF1A4AF6
:1002D0001A4BD31A7B60194B7B61194B3B6100238E
:1002E000FB600AE03A69531C3B617B69591C7961E8
:1002F00012781A70FB680133FB60FA687B689A42D7
:10030000F0D3104A104BD31A7B600F4B7B61002354
:10031000BB6007E07B695A1C7A6100221A70BB68D7
:100320000133BB60BA687B689A42F3D3FFF7F4FEEF
:1003300000BF1837BD4680BD00000020000000202F
:1003400044370008B00400203004002080B500AF1E
:1003500000F096FDFCE700BF80B400AF094B00221F
:100360005A60084B5B68074A43F440135360054BDF
:10037000DB68044A43F40053D36000BFBD4680BC31
:10038000704700BF0010014080B400AF0A4B9B696A
:10039000094A43F008039361084B5B68074B00224E
:1003A0005A60064B5B68054A43F0FF03536000BF89
:1003B000BD4680BC704700BF00100240000C0140E9
:1003C00080B400AF074B9B69064A43F00103936179
:1003D000054B5B68044A43F00203536000BFBD460F
:1003E00080BC7047001002400000014080B400AFA4
:1003F000204B1B889BB21F4A6FEA43436FEA53436B
:100400009BB213801B4B1B889BB21A4AC3F30E038B
:100410009BB21380174B9B889BB2164A43F0240370
:100420009BB29380134B9B8B9BB2124A43F0B40355
:100430009BB293830F4B25221A840E4B9B889BB251
:100440000C4A43F480739BB293800A4B1B889BB287
:10045000084A43F001039BB21380064B1B889BB2F2
:10046000044A43F480639BB2138000BFBD4680BC46
:10047000704700BF0054004080B400AF0E4B1B8893
:100480009BB20D4A43F480639BB213800A4B1B88D6
:100490009BB2094A43F480739BB2138000BF064BA2
:1004A0009B8A9BB203F00103002BF8D000BF00BF72
:1004B000BD4680BC704700BF0054004080B400AF10
:1004C000054B1B889BB2044A43F400739BB2138014
:1004D00000BFBD4680BC70470054004080B485B06A
:1004E00000AF0346FB710C4BFA7992B21A8200BF3F
:1004F000094B9B8A9BB203F00203002BF8D0064BFA
:100500009B8A9AB2044B1B8B9BB21343FB8100BFA7
:100510001437BD4680BC70470054004080B483B09F
:1005200000AF0346FB7100BF0C4B9B8A9BB203F0EC
:100530008003002BF8D0094BFA7992B21A8200BFDF
:10054000064B9B8A9BB203F00403002BF8D000BF3C
:1005500000BF0C37BD4680BC704700BF0054004050
:1005600080B483B000AF78600B46FB7012E000BF30
:10057000114B9B8A9BB203F08003002BF8D07B6861
:100580001A780D4B92B21A827B6801337B60FB783C
:10059000013BFB70FB78002BE9D100BF064B9B8A27
:1005A0009BB203F00403002BF8D000BF00BF0C3750
:1005B000BD4680BC704700BF0054004080B485B089
:1005C00000AF03463960FB711346BB71934B1B8828
:1005D0009BB2924A43F480639BB21380BB79FB7356
:1005E000BB79012B37D18D4BFA7992B21A8200BFB9
:1005F0008A4B9B8A9BB203F00203002BF8D0874BF7
:100600001B889BB2854A23F480639BB21380834B83
:100610009B8A9AB2814B1B8B9BB213433B817F4BCE
:100620001B889BB27D4A43F400739BB2138000BFCA
:100630007A4B9B8A9BB203F04003002BF8D0774B98
:100640001B8A99B2BA79FB7BD31A1A463B681344CA
:10065000CAB21A70DDE0BB79022B5DD16F4B1B88EB
:100660009BB26E4A43F400639BB213806B4BFA79E2
:1006700092B21A8200BF694B9B8A9BB203F00203BD
:10068000002BF8D0654B9B8A9AB2644B1B8B9BB2B4
:1006900013437B81614B1B889BB2604A23F48063C8
:1006A0009BB2138000BF5D4B9B8A9BB203F040035B
:1006B000002BF8D0594B1B889BB2584A43F4007367
:1006C0009BB21380554B1B8A99B2BA79FB7BD31A24
:1006D0001A463B681344CAB21A70FB7B013BFB739A
:1006E00000BF4E4B9B8A9BB203F04003002BF8D017
:1006F0004A4B1B8A99B2BA79FB7BD31A1A463B68DC
:100700001344CAB21A70454B1B889BB2434A23F468
:1007100000639BB213807CE0404BFA7992B21A825C
:1007200000BF3E4B9B8A9BB203F00203002BF8D024
:100730003A4B9B8A9AB2394B1B8B9BB21343BB81BA
:1007400015E000BF354B9B8A9BB203F04003002BA2
:10075000F8D0324B1B8A99B2BA79FB7BD31A1A466E
:100760003B681344CAB21A70FB7B013BFB73FB7BF3
:10077000032BE6D800BF294B9B8A9BB203F04003B2
:10078000002BF8D000BF254B9B8A9BB203F00403DB
:10079000002BF8D0214B1B889BB2204A23F48063A6
:1007A0009BB213801D4B1B8A99B2BA79FB7BD31A7B
:1007B0001A463B681344CAB21A70FB7B013BFB73B9
:1007C000164B1B889BB2154A43F400739BB21380EF
:1007D000124B1B8A99B2BA79FB7BD31A1A463B6833
:1007E0001344CAB21A70FB7B013BFB7300BF0B4B77
:1007F0009B8A9BB203F04003002BF8D0074B1B8A67
:1008000099B2BA79FB7BD31A1A463B681344CAB231
:100810001A7000BF1437BD4680BC704700540040BA
:1008200080B582B000AFBA1D01237521D02000F041
:1008300044F8BB79682B1FD10023FB71FB791A4662
:100840006B21D02000F01CF80723FB71FB791A46BE
:100850001921D02000F014F80023FB71FB791A460F
:100860001C21D02000F00CF81823FB71FB791A46EC
:100870001B21D02000F004F800BF0837BD4680BD22
:1008800080B582B000AF0346FB710B46BB711346C7
:100890007B71FFF7F1FDFB791846FFF71FFEBB796F
:1008A0001846FFF73BFE7B791846FFF737FEFFF748
:1008B00005FE00BF0837BD4680BD80B582B000AFE1
:1008C0003A601A460346FB710B46BB7113467B71B7
:1008D000FFF7D2FDFB791846FFF700FEBB791846FB
:1008E000FFF71CFEFFF7C8FDFB790133DBB27A7915
:1008F00039681846FFF762FE00BF0837BD4680BD65
:1009000080B582B000AF3A4606233B21D020FFF7E6
:10091000D4FF3B781B021AB27B781BB213431AB286
:10092000234B1A80BB781B021AB2FB781BB213430D
:100930001AB21F4B5A803B791B021AB27B791BB249
:1009400013431AB21A4B9A80194BB3F90030184668
:1009500001F092FB03464FF08D41184601F094FCE4
:1009600003461A46124B9A60114BB3F902301846EF
:1009700001F082FB03464FF08D41184601F084FCE4
:1009800003461A460A4BDA60094BB3F9043018469D
:1009900001F072FB03464FF08D41184601F074FCE4
:1009A00003461A46024B1A6100BF0837BD4680BD98
:1009B0003004002080B582B000AF3A4606234321C0
:1009C000D020FFF77AFF3B781B021AB27B781BB26C
:1009D00013431AB2224B1A80BB781B021AB2FB785F
:1009E0001BB213431AB21E4B5A803B791B021AB238
:1009F0007B791BB213431AB2194B9A80184BB3F987
:100A00000030184601F038FB03461649184601F03D
:100A10003BFC03461A46124B9A60114BB3F9023065
:100A2000184601F029FB03460E49184601F02CFC3C
:100A300003461A460A4BDA60094BB3F904301846EC
:100A400001F01AFB03460749184601F01DFC034656
:100A50001A46034B1A6100BF0837BD4680BD00BF70
:100A6000500400203333834180B584B000AF034687
:100A7000FB71FB79782B02D0FB79582B1FD107F142
:100A80000C0202234321D020FFF717FF3B7B1B0200
:100A90001AB27B7B1BB213431AB2314B1A80304B14
:100AA000B3F90030184601F0E7FA03462D4918461D
:100AB00001F0EAFB03461A46294B9A604BE0FB79AA
:100AC000792B02D0FB79592B1FD107F10C0202239D
:100AD0004521D020FFF7F1FE3B7B1B021AB27B7B46
:100AE0001BB213431AB21E4B5A801D4BB3F902308E
:100AF000184601F0C1FA03461A49184601F0C4FB32
:100B000003461A46164BDA6025E0FB797A2B02D0B1
:100B1000FB795A2B1FD107F10C0202234721D02069
:100B2000FFF7CBFE3B7B1B021AB27B7B1BB213434E
:100B30001AB20B4B9A800A4BB3F90430184601F0F5
:100B40009BFA03460749184601F09EFB03461A46E6
:100B5000034B1A61FFE700BF1037BD4680BD00BFE1
:100B6000500400203333834180B584B000AF034686
:100B7000FB71FB79782B02D0FB79582B20D107F140
:100B80000C0202233B21D020FFF797FE3B7B1B0288
:100B90001AB27B7B1BB213431AB2324B1A80314B11
:100BA000B3F90030184601F067FA03464FF08D4163
:100BB000184601F069FB03461A462A4B9A604DE03D
:100BC000FB79792B02D0FB79592B20D107F10C024C
:100BD00002233D21D020FFF770FE3B7B1B021AB29F
:100BE0007B7B1BB213431AB21E4B5A801D4BB3F9C9
:100BF0000230184601F040FA03464FF08D41184686
:100C000001F042FB03461A46164BDA6026E0FB79F8
:100C10007A2B02D0FB795A2B20D107F10C02022348
:100C20003F21D020FFF749FE3B7B1B021AB27B7BA2
:100C30001BB213431AB20B4B9A800A4BB3F9043020
:100C4000184601F019FA03464FF08D41184601F09D
:100C50001BFB03461A46034B1A61FFE700BF103720
:100C6000BD4680BD3004002080B500AF144B1B682A
:100C7000134A43F001031360114B5A681049114B9A
:100C800013404B600E4B1B680D4A23F0847323F412
:100C9000803313600A4B1B68094A23F480231360D6
:100CA000074B5B68064A23F4FE035360044B4FF482
:100CB0001F029A6000F008F800F08CF800BF80BDB9
:100CC000001002400000FFF880B500AF00F002F80D
:100CD00000BF80BD80B483B000AF00237B600023E1
:100CE0003B603A4B1B68394A43F480331360374BFF
:100CF0001B6803F400333B607B6801337B603B6817
:100D0000002B03D17B68B3F5A06FF0D12F4B1B688C
:100D100003F40033002B02D001233B6001E00023E9
:100D20003B603B68012B4BD1294B1B68284A43F0A1
:100D300010031360264B1B68254A23F0070313603A
:100D4000234B1B68224A43F0020313601F4B1F4AC8
:100D50005B6853601D4B1D4A5B6853601B4B5B68AF
:100D60001A4A43F480635360184B5B68174A23F4B4
:100D70007C135360154B5B68144A43F4E8135360CB
:100D8000124B1B68114A43F08073136000BF0F4B76
:100D90001B6803F00073002BF9D00C4B5B680B4A07
:100DA00023F003035360094B5B68084A43F00203D6
:100DB000536000BF054B5B6803F00C03082BF9D1AF
:100DC00000BF0C37BD4680BC704700BF001002401A
:100DD0000020024080B400AF0A4B9B69094A43F0EF
:100DE00010039361074BDB69064A43F00403D361A8
:100DF000044BDB69034A43F40013D36100BFBD46D3
:100E000080BC70470010024080B400AF0D4B40F230
:100E1000CF729A850B4B47221A850A4B9B8A9BB24D
:100E2000084A43F001039BB29382064B1B889BB296
:100E3000044A43F001039BB2138000BFBD4680BC4F
:100E4000704700BF0008004080B483B000AF7860F6
:100E50000BE00A4B00229A8400BF084B9B8C9BB28C
:100E6000002BFAD07B68013B7B607B68002BF0D1C4
:100E700000BF00BF0C37BD4680BC70470008004073
:100E800080B500AF054BDB68044A83F40053D360A0
:100E90000348FFF7D9FF00BF80BD00BF001001402D
:100EA00040420F0080B485B000AFF860B9607A604E
:100EB0003B60FB68BA681A60FB687A685A60FB6836
:100EC0003A689A60FB684FF07E52DA60FB684FF038
:100ED00000021A6100BF1437BD4680BC7047B0B530
:100EE00082B000AF786039607B68DA687B681B6825
:100EF0001946104601F00CF803461A467B68DA6082
:100F00007B68DC687B68DA687B685B68194610463A
:100F100000F0FEFF03461946204601F0B5F90346EE
:100F20001A467B681A617B689C687B681D697B68D0
:100F30009B681946386800F0E9FF034619462846C1
:100F400001F0EEF803461946204600F0E1FF0346A3
:100F50001A467B689A607B68DC687B681B69194667
:100F60004FF07E5000F0D2FF03461946204601F0B4
:100F7000D7F803461A467B68DA607B689B68184698
:100F80000837BD46B0BD80B584B000AF7860396029
:100F90004FF00003FB600023BB600DE0BB689B00CB
:100FA0007A6813441B681946F86800F0B1FF0346DD
:100FB000FB60BB680133BB60BA683B689A42EDDBFB
:100FC000386801F059F803461946F86801F05CF9F1
:100FD000034618461037BD4680BD80B588B000AFC7
:100FE000F860B9607A604FF00003FB610023BB61D9
:100FF00018E0BB699B00FA6813441B6879681846BF
:1010000000F084FF03467B617969786901F088F814
:1010100003461946F86900F07BFF0346FB61BB6994
:101020000133BB61BA69BB689A42E2DBBB68013B32
:10103000184601F021F803461946F86901F024F931
:10104000034618462037BD4680BD80B5ADF5806D9E
:1010500000AF6D4BDB686C4A23F40053D3604FF054
:101060000003C7F8F0334FF00003C7F8EC334FF03C
:101070000003C7F8E8330023C7F8FC3315E07820F5
:10108000FFF772FD614B996807F58063A3F58063F4
:10109000D7F8FC2343F822104FF47A70FFF7D4FE00
:1010A000D7F8FC330133C7F8FC33D7F8FC33F92BFE
:1010B000E5DD3B46FA211846FFF765FFC7F8F00368
:1010C0003B46D7F8F023FA211846FFF786FFC7F80A
:1010D000EC034F49D7F8EC0301F022F80346C7F8B8
:1010E000E8334FF00003D7F8EC23D7F8E81349486A
:1010F000FFF7D8FE0023C7F8F83315E07920FFF793
:1011000033FD424BD96807F58063A3F58063D7F8B8
:10111000F82343F822104FF47A70FFF795FED7F8C2
:10112000F8330133C7F8F833D7F8F833F92BE5DD96
:101130003B46FA211846FFF726FFC7F8F0033B4667
:10114000D7F8F023FA211846FFF747FFC7F8EC035A
:101150002F49D7F8EC0300F0E3FF0346C7F8E83364
:101160004FF00003D7F8EC23D7F8E8132A48FFF72D
:1011700099FE0023C7F8F43315E07A20FFF7F4FC5A
:10118000224B196907F58063A3F58063D7F8F42330
:1011900043F822104FF47A70FFF756FED7F8F43375
:1011A0000133C7F8F433D7F8F433F92BE5DD3B46C8
:1011B000FA211846FFF7E7FEC7F8F0033B46D7F8D9
:1011C000F023FA211846FFF708FFC7F8EC0310498F
:1011D000D7F8EC0300F0A4FF0346C7F8E8334FF05C
:1011E0000003D7F8EC23D7F8E8130C48FFF75AFEB2
:1011F000054BDB68044A43F40053D36000BF07F596
:101200008067BD4680BD00BF001001403004002053
:101210000AD7233C74040020880400209C0400208A
:1012200070B54FF0FF0C4CF4E06C1CEA11541DBF7C
:101230001CEA135594EA0C0F95EA0C0F00F0DEF847
:101240002C4481EA030621EA4C5123EA4C5350EA2C
:10125000013518BF52EA033541F4801143F480137D
:1012600038D0A0FB02CE4FF00005E1FB02E506F00E
:101270000042E0FB03E54FF00006E1FB03569CF063
:10128000000F18BF4EF0010EA4F1FF04B6F5007F69
:1012900064F5407404D25FEA4E0E6D4146EB0606DB
:1012A00042EAC62141EA55514FEAC52040EA5E5064
:1012B0004FEACE2EB4F1FD0C88BFBCF5E06F1ED80E
:1012C000BEF1004F08BF5FEA500E50F1000041EB45
:1012D000045170BD06F0004646EA010140EA0200F2
:1012E00081EA0301B4EB5C04C2BFD4EB0C0541EA14
:1012F000045170BD41F480114FF0000E013C00F329
:10130000AB8014F1360FDEBF002001F0004170BD4C
:10131000C4F10004203C35DA0C341BDC04F1140465
:10132000C4F1200500FA05F320FA04F001FA05F2F1
:1013300040EA020001F0004221F0004110EBD370BE
:1013400021FA04F642EB06015EEA430E08BF20EAEA
:10135000D37070BDC4F10C04C4F1200500FA04F38D
:1013600020FA05F001FA04F240EA020001F000411F
:1013700010EBD37041F100015EEA430E08BF20EA92
:10138000D37070BDC4F1200500FA05F24EEA020EDA
:1013900020FA04F301FA05F243EA020321FA04F009
:1013A00001F0004121FA04F220EA020000EBD370C0
:1013B0005EEA430E08BF20EAD37070BD94F0000FC0
:1013C0000FD101F00046400041EB010111F4801FF4
:1013D00008BF013CF7D041EA060195F0000F18BFA5
:1013E000704703F00046520043EB030313F4801FE1
:1013F00008BF013DF7D043EA0603704794EA0C0F9B
:101400000CEA135518BF95EA0C0F0CD050EA4106B0
:1014100018BF52EA4306D1D181EA030101F000412D
:101420004FF0000070BD50EA410606BF1046194655
:1014300052EA430619D094EA0C0F02D150EA013661
:1014400013D195EA0C0F05D152EA03361CBF1046A2
:1014500019460AD181EA030101F0004141F0FE4141
:1014600041F470014FF0000070BD41F0FE4141F4C5
:10147000780170BD4FF0FF0C1CEAD0521EBF1CEA71
:10148000D15392EA0C0F93EA0C0F6FD01A4480EA02
:10149000010C400218BF5FEA41211ED04FF00063EB
:1014A00043EA501043EA5111A0FB01310CF0004017
:1014B000B1F5000F3EBF490041EAD3715B0040EA3D
:1014C000010062F17F02FD2A1DD8B3F1004F40EB0D
:1014D000C25008BF20F00100704790F0000F0CF0E0
:1014E000004C08BF49024CEA502040EA51207F3AA4
:1014F000C2BFD2F1FF0340EAC250704740F400007F
:101500004FF00003013A5DDC12F1190FDCBF00F06F
:1015100000407047C2F10002410021FA02F1C2F11D
:10152000200200FA02FC5FEA310040F1000053EAB9
:101530004C0308BF20EADC70704792F0000F00F007
:10154000004C02BF400010F4000F013AF9D040EA0D
:101550000C0093F0000F01F0004C02BF490011F4A1
:10156000000F013BF9D041EA0C018FE70CEAD1539F
:1015700092EA0C0F18BF93EA0C0F0AD030F0004C1F
:1015800018BF31F0004CD8D180EA010000F00040D3
:10159000704790F0000F17BF90F0004F084691F091
:1015A000000F91F0004F14D092EA0C0F01D14202CB
:1015B0000FD193EA0C0F03D14B0218BF084608D194
:1015C00080EA010000F0004040F0FE4040F40000DE
:1015D000704740F0FE4040F44000704781F0004109
:1015E00002E000BF83F0004330B54FEA41044FEA08
:1015F000430594EA050F08BF90EA020F1FBF54EAA3
:10160000000C55EA020C7FEA645C7FEA655C00F03E
:10161000E2804FEA5454D4EB5555B8BF6D420CDD0F
:101620002C4480EA020281EA030382EA000083EA92
:10163000010180EA020281EA0303362D88BF30BD32
:1016400011F0004F4FEA01314FF4801C4CEA113188
:1016500002D0404261EB410113F0004F4FEA0333E7
:101660004CEA133302D0524263EB430394EA050F72
:1016700000F0A780A4F10104D5F1200E0DDB02FAE1
:101680000EFC22FA05F2801841F1000103FA0EF275
:10169000801843FA05F359410EE0A5F120050EF13B
:1016A000200E012A03FA0EFC28BF4CF0020C43FA6C
:1016B00005F3C01851EBE37101F0004507D54FF079
:1016C000000EDCF1000C7EEB00006EEB0101B1F5C9
:1016D000801F1BD3B1F5001F0CD349085FEA30000F
:1016E0004FEA3C0C04F101044FEA445212F5800F1A
:1016F00080F09A80BCF1004F08BF5FEA500C50F1B7
:10170000000041EB045141EA050130BD5FEA4C0C99
:10171000404141EB0101013C28BFB1F5801FE9D2F6
:1017200091F0000F04BF01460020B1FA81F308BF19
:101730002033A3F10B03B3F120020CDA0C3208DDE5
:1017400002F1140CC2F10C0201FA0CF021FA02F1C0
:101750000CE002F11402D8BFC2F1200C01FA02F130
:1017600020FA0CFCDCBF41EA0C019040E41AA2BF55
:1017700001EB0451294330BD6FEA04041F3C1CDA1D
:101780000C340EDC04F11404C4F1200220FA04F03D
:1017900001FA02F340EA030021FA04F345EA0301E7
:1017A00030BDC4F10C04C4F1200220FA02F001FAA9
:1017B00004F340EA0300294630BD21FA04F029462B
:1017C00030BD94F0000F83F4801306BF81F48011C4
:1017D0000134013D4EE77FEA645C18BF7FEA655C37
:1017E00029D094EA050F08BF90EA020F05D054EA09
:1017F000000C04BF1946104630BD91EA030F1EBF0E
:101800000021002030BD5FEA545C05D14000494111
:1018100028BF41F0004130BD14F580043CBF01F504
:10182000801130BD01F0004545F0FE4141F47001EA
:101830004FF0000030BD7FEA645C1ABF19461046C5
:101840007FEA655C1CBF0B46024650EA013406BFC6
:1018500052EA033591EA030F41F4002130BD00BF85
:1018600090F0000F04BF0021704730B54FF4806442
:1018700004F132044FF000054FF0000150E700BFC3
:1018800090F0000F04BF0021704730B54FF4806422
:1018900004F1320410F0004548BF40424FF000010F
:1018A0003EE700BF42004FEAE2014FEA31014FEA52
:1018B00002701FBF12F07F4393F07F4F81F06051A1
:1018C000704732F07F4208BF704793F07F4F04BFEC
:1018D00041F40021704730B54FF4607401F00045C9
:1018E00021F000411CE700BF50EA010208BF704729
:1018F00030B54FF000050AE050EA010208BF70471A
:1019000030B511F0004502D5404261EB41014FF482
:10191000806404F132045FEA915C3FF4D8AE4FF08A
:1019200003025FEADC0C18BF03325FEADC0C18BF6D
:10193000033202EBDC02C2F1200300FA03FC20FABE
:1019400002F001FA03FE40EA0E0021FA02F114440B
:10195000BDE600BF70B54FF0FF0C4CF4E06C1CEA24
:1019600011541DBF1CEA135594EA0C0F95EA0C0F95
:1019700000F0DEF82C4481EA030621EA4C5123EA08
:101980004C5350EA013518BF52EA033541F4801137
:1019900043F4801338D0A0FB02CE4FF00005E1FBEA
:1019A00002E506F00042E0FB03E54FF00006E1FB34
:1019B00003569CF0000F18BF4EF0010EA4F1FF0477
:1019C000B6F5007F64F5407404D25FEA4E0E6D41B7
:1019D00046EB060642EAC62141EA55514FEAC520C8
:1019E00040EA5E504FEACE2EB4F1FD0C88BFBCF544
:1019F000E06F1ED8BEF1004F08BF5FEA500E50F1F5
:101A0000000041EB045170BD06F0004646EA0101BA
:101A100040EA020081EA0301B4EB5C04C2BFD4EBEC
:101A20000C0541EA045170BD41F480114FF0000EE5
:101A3000013C00F3AB8014F1360FDEBF002001F053
:101A4000004170BDC4F10004203C35DA0C341BDCCD
:101A500004F11404C4F1200500FA05F320FA04F09F
:101A600001FA05F240EA020001F0004221F00041D3
:101A700010EBD37021FA04F642EB06015EEA430E46
:101A800008BF20EAD37070BDC4F10C04C4F1200576
:101A900000FA04F320FA05F001FA04F240EA020029
:101AA00001F0004110EBD37041F100015EEA430EFA
:101AB00008BF20EAD37070BDC4F1200500FA05F21A
:101AC0004EEA020E20FA04F301FA05F243EA020399
:101AD00021FA04F001F0004121FA04F220EA0200A8
:101AE00000EBD3705EEA430E08BF20EAD37070BDEE
:101AF00094F0000F0FD101F00046400041EB0101CE
:101B000011F4801F08BF013CF7D041EA060195F0AF
:101B1000000F18BF704703F00046520043EB030369
:101B200013F4801F08BF013DF7D043EA0603704756
:101B300094EA0C0F0CEA135518BF95EA0C0F0CD061
:101B400050EA410618BF52EA4306D1D181EA0301A7
:101B500001F000414FF0000070BD50EA410606BFA1
:101B60001046194652EA430619D094EA0C0F02D1E6
:101B700050EA013613D195EA0C0F05D152EA03362B
:101B80001CBF104619460AD181EA030101F0004149
:101B900041F0FE4141F470014FF0000070BD41F092
:101BA000FE4141F4780170BD70B54FF0FF0C4CF46C
:101BB000E06C1CEA11541DBF1CEA135594EA0C0F8B
:101BC00095EA0C0F00F0A7F8A4EB050481EA030ED8
:101BD00052EA03354FEA013100F088804FEA0333BF
:101BE0004FF0805545EA131343EA12634FEA02228D
:101BF00045EA111545EA10654FEA00260EF000414E
:101C00009D4208BF964244F1FD0404F5407402D29F
:101C10005B084FEA3202B61A65EB03055B084FEA30
:101C200032024FF480104FF4002CB6EB020E75EB2D
:101C3000030E22BFB61A754640EA0C005B084FEA55
:101C40003202B6EB020E75EB030E22BFB61A7546D2
:101C500040EA5C005B084FEA3202B6EB020E75EB1D
:101C6000030E22BFB61A754640EA9C005B084FEA95
:101C70003202B6EB020E75EB030E22BFB61A7546A2
:101C800040EADC0055EA060E18D04FEA051545EA91
:101C900016754FEA06164FEAC30343EA52734FEA3A
:101CA000C2025FEA1C1CC0D111F4801F0BD141EAB3
:101CB00000014FF000004FF0004CB6E711F4801F18
:101CC00004BF01430020B4F1FD0C88BFBCF5E06FF8
:101CD0003FF6AFAEB5EB030C04BFB6EB020C5FEA08
:101CE000500C50F1000041EB045170BD0EF0004E5D
:101CF0004EEA113114EB5C04C2BFD4EB0C0541EA8F
:101D0000045170BD41F480114FF0000E013C90E68B
:101D100045EA060E8DE60CEA135594EA0C0F08BF4F
:101D200095EA0C0F3FF43BAF94EA0C0F0AD150EA4E
:101D300001347FF434AF95EA0C0F7FF425AF1046E1
:101D400019462CE795EA0C0F06D152EA03353FF409
:101D5000FDAE1046194622E750EA410618BF52EA86
:101D600043067FF4C5AE50EA41047FF40DAF52EA5A
:101D700043057FF4EBAE12E74FF0FF3C06E000BFF7
:101D80004FF0010C02E000BF4FF0010C4DF804CD04
:101D90004FEA410C7FEA6C5C4FEA430C18BF7FEAC4
:101DA0006C5C1BD001B050EA410C0CBF52EA430CF2
:101DB00091EA030F02BF90EA020F0020704710F172
:101DC000000F91EA030F58BF994208BF90422CBF01
:101DD000D8176FEAE37040F0010070474FEA410CFA
:101DE0007FEA6C5C02D150EA013C07D14FEA430C18
:101DF0007FEA6C5CD6D152EA033CD3D05DF8040B89
:101E0000704700BF8446104662468C4619466346BA
:101E100000E000BF01B5FFF7B7FF002848BF10F191
:101E2000000F01BD4DF808EDFFF7F4FF0CBF0120D6
:101E300000205DF808FB00BF4DF808EDFFF7EAFF52
:101E400034BF012000205DF808FB00BF4DF808ED0D
:101E5000FFF7E0FF94BF012000205DF808FB00BF02
:101E60004DF808EDFFF7CEFF94BF012000205DF88C
:101E700008FB00BF4DF808EDFFF7C4FF34BF012099
:101E800000205DF808FB00BF4FEA410C7FEA6C5C64
:101E900002D150EA013C0AD14FEA430C7FEA6C5C64
:101EA00002D152EA033C02D14FF0000070474FF0DC
:101EB000010070474FEA410212F5001215D211D508
:101EC0006FF47873B3EB625212D94FEAC12343F037
:101ED000004343EA505311F0004F23FA02F018BFB9
:101EE000404270474FF00000704750EA013005D182
:101EF00011F0004008BF6FF0004070474FF0000045
:101F0000704700BF80F0004002E000BF81F0004158
:101F100042001FBF5FEA410392EA030F7FEA226C8F
:101F20007FEA236C6AD04FEA1262D2EB1363C1BF1F
:101F3000D218414048404140B8BF5B42192B88BF8E
:101F4000704710F0004F40F4000020F07F4018BFB1
:101F5000404211F0004F41F4000121F07F4118BFD1
:101F6000494292EA030F3FD0A2F1010241FA03FC79
:101F700010EB0C00C3F1200301FA03F100F0004361
:101F800002D5494260EB4000B0F5000F13D3B0F129
:101F9000807F06D340084FEA310102F10102FE2A98
:101FA00051D2B1F1004F40EBC25008BF20F0010008
:101FB00040EA03007047490040EB0000013A28BFA7
:101FC000B0F5000FEDD2B0FA80FCACF1080CB2EB2A
:101FD0000C0200FA0CF0AABF00EBC25052421843A8
:101FE000BCBFD0401843704792F0000F81F400014D
:101FF00006BF80F400000132013BB5E74FEA410320
:102000007FEA226C18BF7FEA236C21D092EA030F8B
:1020100004D092F0000F08BF0846704790EA010F05
:102020001CBF0020704712F07F4F04D1400028BF32
:1020300040F00040704712F100723CBF00F5000014
:10204000704700F0004343F0FE4040F4000070474A
:102050007FEA226216BF08467FEA236301464202F6
:1020600006BF5FEA412390EA010F40F48000704709
:102070004FF0000304E000BF10F0004348BF4042AF
:102080005FEA000C08BF704743F0964301464FF0EB
:1020900000001CE050EA010208BF70474FF0000347
:1020A0000AE000BF50EA010208BF704711F0004388
:1020B00002D5404261EB41015FEA010C02BF844658
:1020C0000146002043F0B64308BFA3F18053A3F5B7
:1020D0000003BCFA8CF2083AA3EBC25310DB01FAFE
:1020E00002FC634400FA02FCC2F12002BCF1004F82
:1020F00020FA02F243EB020008BF20F00100704713
:1021000002F1200201FA02FCC2F1200250EA4C0066
:1021100021FA02F243EB020008BF20EADC707047AC
:102120004FF0FF0C1CEAD0521EBF1CEAD15392EABA
:102130000C0F93EA0C0F6FD01A4480EA010C400296
:1021400018BF5FEA41211ED04FF0006343EA5010F0
:1021500043EA5111A0FB01310CF00040B1F5000F32
:102160003EBF490041EAD3715B0040EA010062F1E1
:102170007F02FD2A1DD8B3F1004F40EBC25008BFCB
:1021800020F00100704790F0000F0CF0004C08BFE9
:1021900049024CEA502040EA51207F3AC2BFD2F1B6
:1021A000FF0340EAC250704740F400004FF00003C4
:1021B000013A5DDC12F1190FDCBF00F000407047FE
:1021C000C2F10002410021FA02F1C2F1200200FA3C
:1021D00002FC5FEA310040F1000053EA4C0308BF03
:1021E00020EADC70704792F0000F00F0004C02BF54
:1021F000400010F4000F013AF9D040EA0C0093F0CF
:10220000000F01F0004C02BF490011F4000F013B28
:10221000F9D041EA0C018FE70CEAD15392EA0C0F96
:1022200018BF93EA0C0F0AD030F0004C18BF31F001
:10223000004CD8D180EA010000F00040704790F0D7
:10224000000F17BF90F0004F084691F0000F91F07B
:10225000004F14D092EA0C0F01D142020FD193EA41
:102260000C0F03D14B0218BF084608D180EA0100C9
:1022700000F0004040F0FE4040F40000704740F0A5
:10228000FE4040F4400070474FF0FF0C1CEAD05273
:102290001EBF1CEAD15392EA0C0F93EA0C0F69D0CF
:1022A000A2EB030280EA010C49024FEA402037D03A
:1022B0004FF0805343EA111143EA10130CF0004031
:1022C0008B4238BF5B0042F17D024FF4000C8B4221
:1022D00024BF5B1A40EA0C00B3EB510F24BFA3EB01
:1022E000510340EA5C00B3EB910F24BFA3EB9103D1
:1022F00040EA9C00B3EBD10F24BFA3EBD10340EA2B
:10230000DC001B0118BF5FEA1C1CE0D1FD2A3FF670
:1023100050AF8B4240EBC25008BF20F00100704725
:102320000CF0004C4CEA50207F32C2BFD2F1FF03C8
:1023300040EAC250704740F400004FF00003013AF9
:1023400037E792F0000F00F0004C02BF400010F49D
:10235000000F013AF9D040EA0C0093F0000F01F0B1
:10236000004C02BF490011F4000F013BF9D041EAD3
:102370000C0195E70CEAD15392EA0C0F08D1420206
:102380007FF47DAF93EA0C0F7FF470AF084676E7D9
:1023900093EA0C0F04D14B023FF44CAF08466EE7B2
:1023A00030F0004C18BF31F0004CCAD130F0004280
:1023B0007FF45CAF31F000437FF43CAF5FE700BFD8
:1023C0002DE9F84FB84F21F00046BE4204460D46B5
:1023D0008A461CDDB54B9E420DDC0AD0B44BB54A93
:1023E000B54CBAF1000FD8BF134620461946BDE8D8
:1023F000F88F0028F2D022462B4620462946FFF7C8
:10240000F3F804460B4620461946BDE8F88FAB4B5F
:102410009E4200F3B080A3F1DE739E4240F39D80A4
:102420004FF0FF3B22462B4620462946FFF792FA03
:1024300002460B4680468946FFF78CFA82A3D3E911
:10244000002306460F46FFF785FA81A3D3E9002350
:10245000FFF7CAF832463B46FFF77CFA7EA3D3E982
:102460000023FFF7C1F832463B46FFF773FA7CA31F
:10247000D3E90023FFF7B8F832463B46FFF76AFA84
:1024800079A3D3E90023FFF7AFF832463B46FFF7C5
:1024900061FA77A3D3E90023FFF7A6F842464B463B
:1024A000FFF758FA74A3D3E90023804689463046E3
:1024B0003946FFF74FFA72A3D3E90023FFF792F8EA
:1024C00032463B46FFF746FA6FA3D3E90023FFF7F6
:1024D00089F832463B46FFF73DFA6DA3D3E9002366
:1024E000FFF780F832463B46FFF734FA6AA3D3E998
:1024F0000023FFF777F832463B46FFF72BFABBF194
:10250000FF3F02460B464046494653D0FFF76CF862
:102510006B4E22462B46FFF71DFA6A4B06EBCB06A5
:102520004FEACB0B9B44DBE90023FFF75BF8224625
:102530002B46FFF757F80B460246D6E90001FFF796
:1025400051F8BAF1000F04460B46BFF64EAF01F149
:10255000004320461946BDE8F88F51A3D3E9002374
:10256000FFF742F80022584BFFF784FC00283FF4A5
:1025700057AF2B4639E700F0B1F8544B04469E4262
:102580000D4629DCA3F550239E4250DC02460B4643
:10259000FFF72AF800224C4BFFF724F802460B46BF
:1025A0002046294614461D464FF0000B00224FF0EE
:1025B000804326E0FFF718F822462B46FFF7CAF9BA
:1025C00002460B4620462946FFF70CF804460B4608
:1025D00020461946BDE8F88F3D4B9E421CDA00228A
:1025E0003C4BFEF7FFFF02460B46204629461446A9
:1025F0001D460022374B4FF0020BFFF7ABF90022CC
:10260000314BFEF7F1FF02460B4620462946FFF705
:10261000CBFA04460D4605E702460B4600202E493C
:10262000FFF7C2FA4FF0030B04460D46FAE600220C
:10263000254BFEF7D7FF02460B46204629464FF0B2
:10264000010B14461D46DAE711DA22E33AAD903F5A
:10265000EB0D76244B7BA93F513DD0A0660DB13FD9
:102660006E204CC5CD45B73FFF8300922449C23F41
:102670000D5555555555D53F2F6C6A2C44B4A2BF06
:102680009AFDDE522DDEAD3F6D9A74AFF2B0B33FCE
:10269000711623FEC671BC3FC4EB98999999C93F46
:1026A0009C7500883CE4377EFFFF0F440000F07FFC
:1026B000FB21F93FFB21F9BF182D4454FFFFDB3FFD
:1026C00000370008203700080000F03FFFFFF23F0E
:0C26D000008003400000F83F0000F0BF55
:0826DC0021F00041704700BF2E
:1026E4002DE9F84314461D468046894600F08EF8CD
:1026F400224606460F462B4620462946FFF7C2FBD4
:1027040078B90022002340464946FFF789FBD8B137
:102714000022002320462946FFF782FB28B1002629
:10272400254F30463946BDE8F8832046294600F057
:1027340059FF0028F5D02046294600220023FFF740
:1027440079FB0028EDD02CE03046394600F04AFFF2
:10275400A0B10022002330463946FFF761FB002870
:10276400DFD04046494600F03DFF0028D9D020463E
:10277400294600F037FF0028D3D012E040464946EE
:1027840000F030FF0028E4D02046294600F02AFF5C
:102794000028DED032463B4630463946FFF772FB0E
:1027A40020B900F0A5FF22230360BAE700F0A0FFE0
:0C27B40021230360B5E700BF0000F03FE8
:1027C000F8B504460D4600F0A7FD224606460F4622
:1027D0002B4620462946FFF757FB30B920462946AD
:1027E00000220023FFF728FB10B930463946F8BD18
:1027F00000F080FF002200232121016010461946CD
:10280000FFF7D2F906460F4630463946F8BD00BFFD
:102810002DE9F04F23F0004B80465BEA020014469E
:102820001D460E4693B016D143467D49DB1886F40B
:1028300000225241984271EB020324D240462246C4
:102840002B463146FEF7D0FECDE90001DDE900015F
:1028500013B0BDE8F08F1146724A26F00049914549
:102860009A463746434617DD07F1404707F580177C
:102870001F43E3D122196A4985F400235B41974243
:1028800071EB0303DAD30023674CCDE90034DDE9B3
:10289000000113B0BDE8F08F40D0624A9345E3DCFD
:1028A00000F09380002F73DB0022029279B95D4A19
:1028B000934500F08E805C4A934500F0A280BAF107
:1028C000804F00F0A084594A924500F0C6834046EC
:1028D00031460493FFF702FF049BCDE900015BB38F
:1028E000029AFB0F013B0A93134300F09380504B75
:1028F0009B4540F3A38003F104739B454D4B40F38C
:102900001B84994540F39184BAF1000F40F3918400
:10291000002013B0BDE8F04F00F0F4BD002B8DD1C6
:10292000BBE7404631460293FFF7D8FE029BCDE954
:102930000001002B6ED10293B9F1000F04D03A4B85
:1029400027F040429A42CBD1BAF1000F07DADDE915
:10295000002300203449FFF727F9CDE90001002FBB
:10296000BFF674AF029B09F1404909F5801959EA95
:10297000030340F06E84DDE9002310461946FEF79C
:1029800031FE02460B46FFF70FF9CDE900015DE786
:10299000294A93452FDCA2F1547293450FDD4FEA8B
:1029A0002B52A2F2FF32142A40F34584C2F13402C2
:1029B00021FA02F000FA02F28A4200F07784002243
:1029C000029200293FF477AF81E700293FF46AAF14
:1029D0004AE709F1404202F5801213433FF453AF36
:1029E000144B994540F36D83BAF1000FC0F2638335
:1029F000CDE900452AE70222029200293FF457AFB1
:102A000065E7BAF1000FC0F2F48340463146CDE9E4
:102A100000011BE74246404633463146AFE700BF60
:102A20000000F0FF0000F07F0000F03F0000E03FFA
:102A30000000E041FFFFEF3FFFFF3F43D44B3B402F
:102A4000002B40F04783DDE900010022D14BFEF767
:102A500081FF6FF034028946CDE900014FEA295326
:102A6000A3F2FF339A18CC4BC9F3130949F07F56F0
:102A700099450B9246F4401607DDC84B994540F343
:102A8000F58301320B92A6F5801600220023002068
:102A90000027C349CDE90823CDE90601CDE910237C
:102AA000DDE90001DDE9062331468246FEF79AFDA5
:102AB000DDE90623B3468046894650463146CDE9D6
:102AC0000CABFEF791FD02460B460020B449FFF720
:102AD0006BF88C46834663465A4640464946CDE9E4
:102AE0000EBCFEF737FF82468B46731043F000534F
:102AF00003F50023D9190F465A46514600230020FA
:102B0000CDE900120093064602463B46CDE904ABF0
:102B1000DDE900AB50465946FEF71CFF02460B4666
:102B200040464946FEF75EFDDDE9062380468946BC
:102B300030463946FEF756FD02460B46DDE90C01EC
:102B4000FEF750FD52465B46FEF704FF02460B4679
:102B500040464946FEF746FDDDE90E23FEF7FAFE44
:102B6000DDE90467CDE9060132463B463046394689
:102B7000FEF7F0FE74A3D3E9002306460F46FEF7E6
:102B8000E9FE73A3D3E90023FEF72EFD32463B4650
:102B9000FEF7E0FE70A3D3E90023FEF725FD3246E1
:102BA0003B46FEF7D7FE6EA3D3E90023FEF71CFDDC
:102BB00032463B46FEF7CEFE6BA3D3E90023FEF779
:102BC00013FD32463B46FEF7C5FE69A3D3E9002359
:102BD000FEF70AFD3246804689463B463046394676
:102BE000FEF7B8FE02460B4640464946FEF7B2FEE7
:102BF00006460F46DDE9040152465B46FEF7F4FC4B
:102C0000DDE90623FEF7A6FE32463B46FEF7ECFC66
:102C10005246804689465B4650465946FEF79AFE24
:102C200002460B46CDE90C2300225E4BFEF7DCFC8E
:102C300042464B46FEF7D8FC00260F4632463B463E
:102C400050465946FEF786FE002282468B463046A5
:102C50003946544BFEF7C6FCDDE90C23FEF7C2FCF7
:102C600002460B4640464946FEF7BCFCDDE904231C
:102C7000FEF770FE324680468946DDE906013B4696
:102C8000FEF768FE02460B4640464946FEF7ACFC9E
:102C900080468946002642464B4650465946FEF736
:102CA000A3FC35A3D3E9002330460F46FEF752FEBE
:102CB00052465B4682468B4630463946FEF792FCCA
:102CC00002460B4640464946FEF78CFC2CA3D3E94E
:102CD0000023FEF73FFE02460B46304639461646B5
:102CE0001F4629A3D3E90023FEF734FE02460B4614
:102CF00030463946FEF778FCDDE91023FEF774FC18
:102D000006460B980F46FEF7BBFD804689463246C5
:102D10003B4650465946CDE904ABFEF765FCDDE97C
:102D20000823FEF761FC4FF0000A42464B46FEF7CF
:102D30005BFC42464B4650468B46FEF753FCDDE9B2
:102D40000823FEF74FFC2FE0EF4E454A287ECA3F8E
:102D500065DBC9934A86CD3F01411DA96074D13F0F
:102D60004D268F515555D53FFFAB6FDBB66DDB3F21
:102D7000033333333333E33F000000E009C7EE3F52
:102D8000FD033ADC09C7EE3FF5015B14E02F3EBEC0
:102D90000000F07F000040438E98030079B60B00DE
:102DA0000000F03F00000840DDE90423FEF71AFCB4
:102DB00002460B4630463946FEF714FC029B0A9A3F
:102DC000013B13434FF000020CBFD54BD54BCDE96F
:102DD0000045CDE9022300230093DDE90089CDE918
:102DE000040142464B4620462946FEF7FBFB52466D
:102DF0005B46FEF7AFFD224606460F46DDE90401BD
:102E00002B46FEF7A7FD02460B4630463946FEF735
:102E1000EBFB42464B4606460F4650465946FEF7E8
:102E200099FD04460D4630462B4639462246FEF7AC
:102E3000DBFBBD4B8046994289468A4640F31781A9
:102E400001F13F4303F5E003034340F02482A2A3D2
:102E5000D3E9002330463946FEF7C6FB02460B464F
:102E6000404649469046994622462B46FEF7BAFB15
:102E700002460B4640464946FEF7FCFF002840F05C
:102E80000A82CAF30A534FF480120020A3F2FE33E1
:102E900042FA03F35344A549C3F30A52A2F2FF32A4
:102EA00041FA02FCC3F3130B23EA0C01C2F1140232
:102EB0004BF4801BBAF1000F0B464BFA02FB29467C
:102EC00002462046B8BFCBF1000BFEF78BFB044651
:102ED0000D463046394622462B46FEF785FB89468D
:102EE0004FEA0B5A4FF000087DA3D3E90023404678
:102EF0004946FEF72FFD22462B4604460D46404626
:102F00004946FEF76FFB02460B4630463946FEF750
:102F100069FB75A3D3E90023FEF71CFD74A3D3E975
:102F2000002306460F4640464946FEF713FD02467B
:102F30000B4630463946FEF757FB804689464246E7
:102F40004B4620462946FEF74FFB22462B460646B7
:102F50000F46FEF747FB02460B4640464946FEF742
:102F600041FB3246804689463B4630463946FEF7AD
:102F7000F1FC61A3D3E9002304460D46FEF7EAFC09
:102F80005FA3D3E90023FEF72DFB22462B46FEF775
:102F9000E1FC5DA3D3E90023FEF726FB22462B4686
:102FA000FEF7D8FC5AA3D3E90023FEF71BFB224609
:102FB0002B46FEF7CFFC58A3D3E90023FEF714FB02
:102FC00022462B46FEF7C6FC02460B4630463946E3
:102FD000FEF708FB04460D4622462B46304639468E
:102FE000FEF7B8FC02460B462046294614461D460D
:102FF00000224FF08043FEF7F5FA02460B462046CA
:103000002946FEF7D1FD424604460D464B46304662
:103010003946FEF79FFC42464B46FEF7E5FA02466C
:103020000B4620462946FEF7DDFA32463B46FEF7C0
:10303000D9FA02460B4600203A49FEF7D3FA8A44F1
:10304000BAF5801FC0F223815146DDE90223FEF765
:1030500081FCCDE90001FFF7F9BB002FFFF637AC8B
:103060004046314613B0BDE8F04F00F055B9DFF8E7
:10307000C0C021F00043634540F3CF802D4B0B448B
:1030800003430AD122462B46FEF7ACFA32463B46B2
:10309000FEF7E6FE00283FF4F4AEDDE9020100226F
:1030A0000023FEF7C9FE003818BF012013B0BDE8A9
:1030B000F04F00F01BBA00230024CDE90034FFF7E5
:1030C000C5BBBAF1000FF6DA05F100430094019395
:1030D000FFF7BCBB0022C1E4FE822B654715973C7D
:1030E00000000000432EE63FEF39FAFE422EE63F95
:1030F000396CA80C615C20BED0A4BE726937663EF4
:10310000F16BD2C541BDBB3E2CDE25AF6A56113FE7
:1031100093BDBE166CC1663F3E5555555555C53FCE
:103120000000F0BF0000F03FFFFF8F40FFFF0F00E7
:10313000FFCB904000346F3F994576DB724B994549
:103140003FF7E2ABDDE9000100226F4BFEF74AFAE0
:1031500061A3D3E9002306460F46FEF7FBFB60A3FD
:10316000D3E9002382468B4630463946FEF7F2FB10
:103170000022CDE90001654B30463946FEF7EAFBF7
:1031800002460B4658A1D1E90001FEF72BFA324660
:103190003B46FEF7DFFB02460B4600205C49FEF78C
:1031A00021FA32463B468046894630463946FEF78C
:1031B000D1FB02460B4640464946FEF7CBFB4CA3EB
:1031C000D3E90023FEF7C6FB02460B46DDE900010A
:1031D000FEF708FA06460F465046594632463B4629
:1031E000FEF702FA52464FF0000A5B4650468B4605
:1031F000DCE54246002033464349FEF7D5FCCDE9E5
:103200000001FFF723BB4246404633463146FEF7F6
:10321000A1FBCDE90001FFF719BB3D4A934256DC03
:10322000DDE90023924693465CE6BAF1000FFFF613
:103230006FAB00203AE700297FF473ABC2F11402B0
:103240004BFA02F000FA02F25A4539D00291FFF728
:1032500032BB029B012B7FF4F9AADDE9004522462F
:1032600005F10043CDE90023FFF7F0BA0022294B16
:103270004FF48027CDE906231FA3D3E90023CDE92E
:1032800008231FA3D3E90023CDE9102308E45A46FD
:1032900000F0B2F9D9E60022DDE902010023FEF7D1
:1032A000CBFD003818BF0120FFF733BB00F0010051
:1032B000C0F10202029200293FF4FDAAFFF707BB0A
:1032C00000F00100C0F102020292FFF7F4BA1B15F0
:1032D000D9E500BFAFF30080000000604715F73F5D
:1032E00044DF5DF80BAE543E555555555555D53F09
:1032F000FE822B654715F73F0000004003B8E23F10
:1033000006D0CF43EBFD4C3E0000F03F0000D03F25
:083310000000E03F0000F83F5F
:103318002DE9F843604E054636EA01020C4600F0F6
:103328009E8000290B46844654DD091562D0C3F3FC
:103338001303C807A1F2FF3743F4801304D45B00DA
:1033480003EBDC734FEA4C0C00264FEADC7202EB0D
:1033580043034FF0160E4FF4001234467F104FEA25
:103368004C0CA118994202DC5B1A8C1816445B00BD
:10337800BEF1010E03EBDC734FEA52024FEA4C0C2C
:10338800EFD1754620204FF000420AE043D04FEAC3
:10339800DC71013801EB43034FEA4C0C4FEA52024F
:1033A80042D0A34202EB0E01F0DD002901EB020E30
:1033B8000ADBA0461B1B614588BF03F1FF33444667
:1033C800ACEB010C1544E2E7BEF1000FF1DB04F1B0
:1033D8000108EFE721F00042024336D000294CD122
:1033E8004FEADC22134615394FEA4C5C002AF7D025
:1033F800D6024CD400205B00DD02044600F1010037
:10340800F9D51A4663460CFA00FCC0F12000C34007
:10341800091B13438BE76145B9D8002901EB020E5C
:10342800D2DB98460023CAE753EA0C0311D1680897
:10343800731003F17F5303F50013F20748BF40F000
:10344800004003EB075905464C4628462146BDE88F
:10345800F883691C16BF681C01364008E8E7024675
:103468000B46FEF773FA2A462346FEF7B9F80546D7
:103478000C4628462146BDE8F8830246FEF7AEF81A
:1034880002460B46FEF78CFB05460C46DDE7634615
:0C34980020204FF0FF34BAE70000F07F66
:1034A400D0B506460F46144600F022F903463946C5
:0834B40030461C60D0BD00BFD2
:1034BC00F0B5194683B080B1144603F100451646A9
:1034CC00CDE90045DDE900233046FEF73DFA222226
:1034DC0003B0BDE8F040FFF7DFBF14461D46EEE732
:0C34EC0000224FF08053FFF7E3BF00BF49
:0C34F8000022014BFFF7DEBF0000581E51
:0C35040000224FF0E043FFF7D7BF00BFEC
:1035100000B5002283B070B9084BCDE90023DDE986
:10352000000100220023FEF73FFB222203B05DF8DA
:1035300004EBFFF7B7BF024BEFE700BF0000F03F1F
:043540000000F0BFD8
:10354400F8B502460B4604460D46FEF749F8024616
:103554000B46FEF727FB224606460F462B4620461F
:103564002946FEF78FFC30B930463946BDE8F840AD
:0C3574002122FFF795BF30463946F8BD14
:1035800038B50022002304460D46FEF74BFC10B967
:103590002046294638BD20462946BDE8384022222B
:0435A000FFF780BFF2
:1035A40070B50D46044625F000464FF0FF32204624
:1035B40031460B4BFEF766FC38B920464FF0FF321C
:1035C4003146074BFEF740FC10B12046294670BD3A
:1035D40020462946BDE870402222FFF761BF00BFA4
:0435E400FFFFEF7F77
:0C35E80041F0004000F58010C00F70475B
:1035F800C1F30A5370B58C4604460D4616467BBB8C
:10360800034621F0004C5CEA030328D0324B002229
:10361800FEF79CF9314B04469E420D461ADB8C4658
:10362800C1F30A53363B40F2FE723344934220DC26
:10363800002B3EDC13F1350F2CDA4CF250339E424E
:1036480017DC05F0004343F0D27141F4B731244848
:1036580041F01F011CA3D3E90023FEF777F970BDE1
:1036680040F2FF7E7345DED102460B46FDF7B8FFF8
:1036780070BD05F0004343F0FC4141F45F1141F493
:10368800105113A3D3E90023164841F03C01FEF77B
:103698005DF970BD2CF0FF4C03F136012CF4E00C01
:1036A8004CEA01550022204629460F4BFEF74EF9F9
:1036B80070BD2CF0FF4C2CF4E00C20464CEA035172
:1036C80070BD00BFAFF3008059F3F8C21F6EA501AB
:1036D8009C7500883CE4377E00005043B03CFFFFF7
:0C36E80059F3F8C29C7500880000903C6B
:0C36F400014B1868704700BF0000002068
:103700004FBB610567ACDD3F182D4454FB21E93FF9
:103710009BF681D20B73EF3F182D4454FB21F93FE8
:10372000E2652F227F2B7A3C075C143326A6813C6E
:10373000BDCBF07A8807703C075C143326A6913C19
:04374000080000205D
:043744000800002059
:1037480000000000F40200205C030020C4030020F5
:103758000000000000000000000000000000000061
:103768000000000000000000000000000000000051
:103778000000000000000000000000000000000041
:103788000000000000000000000000000000000031
:103798000000000000000000000000000000000021
:1037A8000000000000000000000000000000000011
:1037B8000000000000000000000000000000000001
:1037C80000000000000000000000000000000000F1
:1037D80000000000000000000000000000000000E1
:1037E80000000000000000000100000000000000D0
:1037F8000E33CDAB34126DE6ECDE05000B00000095
:1038080000000000000000000000000000000000B0
:1038180000000000000000000000000000000000A0
:103828000000000000000000000000000000000090
:103838000000000000000000000000000000000080
:04000005080002C924
:00000001FF
