:020000040800F2
:100000000050002059030008DD030008DD0300084C
:10001000DD030008DD030008DD0300080000000028
:10002000000000000000000000000000DD030008E8
:10003000DD03000800000000DD030008DD03000808
:10004000DD030008DD030008DD030008DD03000810
:10005000DD030008DD030008DD030008DD03000800
:10006000DD030008DD030008DD030008DD030008F0
:10007000DD030008DD030008DD030008DD030008E0
:10008000DD030008DD030008DD030008DD030008D0
:10009000DD030008DD030008DD030008DD030008C0
:1000A000DD030008DD030008DD030008DD030008B0
:1000B000DD030008DD030008DD030008DD030008A0
:1000C000DD030008DD030008DD030008DD03000890
:1000D000DD030008DD030008DD030008DD03000880
:1000E000DD030008DD030008DD03000880B400AF75
:1000F000064B00225A60054B5B68044A43F44013E8
:10010000536000BFBD4680BC704700BF0010014077
:1001100080B500AF144B1B68134A43F00103136012
:10012000114B5A681049114B13404B600E4B1B6822
:100130000D4A23F0847323F4803313600A4B1B6849
:10014000094A23F480231360074B5B68064A23F4B3
:10015000FE035360044B4FF41F029A6000F008F84E
:1001600000F08CF800BF80BD001002400000FFF8D6
:1001700080B500AF00F002F800BF80BD80B483B04E
:1001800000AF00237B6000233B603A4B1B68394A79
:1001900043F480331360374B1B6803F400333B6038
:1001A0007B6801337B603B68002B03D17B68B3F530
:1001B000A06FF0D12F4B1B6803F40033002B02D04B
:1001C00001233B6001E000233B603B68012B4BD1E6
:1001D000294B1B68284A43F010031360264B1B6809
:1001E000254A23F007031360234B1B68224A43F080
:1001F000020313601F4B1F4A5B6853601D4B1D4A6F
:100200005B6853601B4B5B681A4A43F4806353601E
:10021000184B5B68174A23F47C135360154B5B68DB
:10022000144A43F4E8135360124B1B68114A43F01D
:100230008073136000BF0F4B1B6803F00073002B2B
:10024000F9D00C4B5B680B4A23F003035360094B56
:100250005B68084A43F00203536000BF054B5B68CC
:1002600003F00C03082BF9D100BF0C37BD4680BC4E
:10027000704700BF001002400020024080B400AF71
:10028000074B9B69064A43F010039361044BDB69FB
:10029000034A43F00403D36100BFBD4680BC7047EE
:1002A0000010024080B400AF0D4B40F2CF729A852F
:1002B0000B4B47221A850A4B9B8A9BB2084A43F094
:1002C00001039BB29382064B1B889BB2044A43F006
:1002D00001039BB2138000BFBD4680BC704700BFC6
:1002E0000008004080B483B000AF78600BE00A4B98
:1002F00000229A8400BF084B9B8C9BB2002BFAD043
:100300007B68013B7B607B68002BF0D100BF00BFA6
:100310000C37BD4680BC70470008004080B500AF78
:10032000054BDB68044A83F40053D3600348FFF7AE
:10033000D9FF00BF80BD00BF00100140A0860100B2
:1003400080B500AFFFF7E4FEFFF7D0FEFFF7AAFF8E
:10035000FFF7E4FFFCE7000080B586B000AF1A4A63
:100360001A4BD31A7B60194B7B61194B3B610023FD
:10037000FB600AE03A69531C3B617B69591C796157
:1003800012781A70FB680133FB60FA687B689A4246
:10039000F0D3104A104BD31A7B600F4B7B610023C4
:1003A000BB6007E07B695A1C7A6100221A70BB6847
:1003B0000133BB60BA687B689A42F3D3FFF7C0FF92
:1003C00000BF1837BD4680BD00000020000000209F
:1003D000E4030008000000200000002080B400AF0B
:0403E000FEE700BF75
:040000050800035993
:00000001FF
